{
  "_format": "hh-sol-artifact-1",
  "contractName": "ERC20PolyPool",
  "sourceName": "contracts/Polynom.sol",
  "abi": [
    {
      "inputs": [
        {
          "internalType": "uint256",
          "name": "total",
          "type": "uint256"
        },
        {
          "internalType": "address",
          "name": "au",
          "type": "address"
        },
        {
          "internalType": "address",
          "name": "mowner",
          "type": "address"
        },
        {
          "internalType": "string",
          "name": "myName",
          "type": "string"
        },
        {
          "internalType": "string",
          "name": "mySymbol",
          "type": "string"
        },
        {
          "internalType": "uint8",
          "name": "myDecimals",
          "type": "uint8"
        },
        {
          "internalType": "address",
          "name": "mixPool",
          "type": "address"
        }
      ],
      "stateMutability": "nonpayable",
      "type": "constructor"
    },
    {
      "anonymous": false,
      "inputs": [
        {
          "indexed": true,
          "internalType": "address",
          "name": "owner",
          "type": "address"
        },
        {
          "indexed": true,
          "internalType": "address",
          "name": "spender",
          "type": "address"
        },
        {
          "indexed": false,
          "internalType": "uint256",
          "name": "value",
          "type": "uint256"
        }
      ],
      "name": "Approval",
      "type": "event"
    },
    {
      "anonymous": false,
      "inputs": [
        {
          "indexed": true,
          "internalType": "address",
          "name": "beneficiary",
          "type": "address"
        },
        {
          "indexed": false,
          "internalType": "uint256",
          "name": "bid",
          "type": "uint256"
        }
      ],
      "name": "BidIncreased",
      "type": "event"
    },
    {
      "anonymous": false,
      "inputs": [
        {
          "indexed": true,
          "internalType": "address",
          "name": "shareAddress",
          "type": "address"
        },
        {
          "indexed": false,
          "internalType": "uint256",
          "name": "value",
          "type": "uint256"
        },
        {
          "indexed": false,
          "internalType": "uint256",
          "name": "idx",
          "type": "uint256"
        }
      ],
      "name": "ChangedShare",
      "type": "event"
    },
    {
      "anonymous": false,
      "inputs": [
        {
          "indexed": true,
          "internalType": "address",
          "name": "trader",
          "type": "address"
        },
        {
          "indexed": false,
          "internalType": "uint256",
          "name": "maxBid",
          "type": "uint256"
        }
      ],
      "name": "NewTrader",
      "type": "event"
    },
    {
      "anonymous": false,
      "inputs": [
        {
          "indexed": true,
          "internalType": "address",
          "name": "trader",
          "type": "address"
        },
        {
          "indexed": true,
          "internalType": "address",
          "name": "tokenIn",
          "type": "address"
        },
        {
          "indexed": true,
          "internalType": "address",
          "name": "tokenOut",
          "type": "address"
        },
        {
          "indexed": false,
          "internalType": "uint256",
          "name": "input",
          "type": "uint256"
        },
        {
          "indexed": false,
          "internalType": "uint256",
          "name": "output",
          "type": "uint256"
        },
        {
          "indexed": false,
          "internalType": "uint256",
          "name": "fee",
          "type": "uint256"
        }
      ],
      "name": "TradeExecuted",
      "type": "event"
    },
    {
      "anonymous": false,
      "inputs": [
        {
          "indexed": true,
          "internalType": "address",
          "name": "from",
          "type": "address"
        },
        {
          "indexed": true,
          "internalType": "address",
          "name": "to",
          "type": "address"
        },
        {
          "indexed": false,
          "internalType": "uint256",
          "name": "value",
          "type": "uint256"
        }
      ],
      "name": "Transfer",
      "type": "event"
    },
    {
      "inputs": [
        {
          "internalType": "address",
          "name": "mowner",
          "type": "address"
        },
        {
          "internalType": "address",
          "name": "delegate",
          "type": "address"
        }
      ],
      "name": "allowance",
      "outputs": [
        {
          "internalType": "uint256",
          "name": "",
          "type": "uint256"
        }
      ],
      "stateMutability": "view",
      "type": "function"
    },
    {
      "inputs": [
        {
          "internalType": "address",
          "name": "delegate",
          "type": "address"
        },
        {
          "internalType": "uint256",
          "name": "numTokens",
          "type": "uint256"
        }
      ],
      "name": "approve",
      "outputs": [
        {
          "internalType": "bool",
          "name": "",
          "type": "bool"
        }
      ],
      "stateMutability": "nonpayable",
      "type": "function"
    },
    {
      "inputs": [],
      "name": "auction",
      "outputs": [
        {
          "internalType": "address",
          "name": "",
          "type": "address"
        }
      ],
      "stateMutability": "view",
      "type": "function"
    },
    {
      "inputs": [],
      "name": "auctionBlock",
      "outputs": [
        {
          "internalType": "uint256",
          "name": "",
          "type": "uint256"
        }
      ],
      "stateMutability": "view",
      "type": "function"
    },
    {
      "inputs": [
        {
          "internalType": "address",
          "name": "tokenOwner",
          "type": "address"
        }
      ],
      "name": "balanceOf",
      "outputs": [
        {
          "internalType": "uint256",
          "name": "",
          "type": "uint256"
        }
      ],
      "stateMutability": "view",
      "type": "function"
    },
    {
      "inputs": [
        {
          "internalType": "address",
          "name": "",
          "type": "address"
        }
      ],
      "name": "bids",
      "outputs": [
        {
          "internalType": "uint256",
          "name": "",
          "type": "uint256"
        }
      ],
      "stateMutability": "view",
      "type": "function"
    },
    {
      "inputs": [
        {
          "internalType": "address",
          "name": "newOwner",
          "type": "address"
        }
      ],
      "name": "changeOwner",
      "outputs": [],
      "stateMutability": "nonpayable",
      "type": "function"
    },
    {
      "inputs": [
        {
          "internalType": "address",
          "name": "_tokenAddress",
          "type": "address"
        },
        {
          "internalType": "uint256",
          "name": "_value",
          "type": "uint256"
        },
        {
          "internalType": "bool",
          "name": "_last",
          "type": "bool"
        }
      ],
      "name": "changeShare",
      "outputs": [],
      "stateMutability": "nonpayable",
      "type": "function"
    },
    {
      "inputs": [
        {
          "internalType": "uint256",
          "name": "_value",
          "type": "uint256"
        },
        {
          "internalType": "address",
          "name": "_beneficiary",
          "type": "address"
        }
      ],
      "name": "createNewToken",
      "outputs": [],
      "stateMutability": "nonpayable",
      "type": "function"
    },
    {
      "inputs": [],
      "name": "decimals",
      "outputs": [
        {
          "internalType": "uint8",
          "name": "",
          "type": "uint8"
        }
      ],
      "stateMutability": "view",
      "type": "function"
    },
    {
      "inputs": [
        {
          "internalType": "uint256",
          "name": "_value",
          "type": "uint256"
        },
        {
          "internalType": "address",
          "name": "_beneficiary",
          "type": "address"
        }
      ],
      "name": "doBid",
      "outputs": [],
      "stateMutability": "nonpayable",
      "type": "function"
    },
    {
      "inputs": [],
      "name": "equalize",
      "outputs": [],
      "stateMutability": "nonpayable",
      "type": "function"
    },
    {
      "inputs": [],
      "name": "equalizerBlock",
      "outputs": [
        {
          "internalType": "uint256",
          "name": "",
          "type": "uint256"
        }
      ],
      "stateMutability": "view",
      "type": "function"
    },
    {
      "inputs": [
        {
          "internalType": "uint256",
          "name": "",
          "type": "uint256"
        }
      ],
      "name": "fixSettings",
      "outputs": [
        {
          "internalType": "bool",
          "name": "",
          "type": "bool"
        }
      ],
      "stateMutability": "view",
      "type": "function"
    },
    {
      "inputs": [],
      "name": "fixShare",
      "outputs": [
        {
          "internalType": "bool",
          "name": "",
          "type": "bool"
        }
      ],
      "stateMutability": "view",
      "type": "function"
    },
    {
      "inputs": [
        {
          "internalType": "address",
          "name": "_receiver",
          "type": "address"
        },
        {
          "internalType": "uint256",
          "name": "_amount",
          "type": "uint256"
        },
        {
          "internalType": "bytes",
          "name": "_params",
          "type": "bytes"
        },
        {
          "internalType": "address",
          "name": "_tokenAddress",
          "type": "address"
        }
      ],
      "name": "flashLoan",
      "outputs": [],
      "stateMutability": "nonpayable",
      "type": "function"
    },
    {
      "inputs": [],
      "name": "flashLock",
      "outputs": [
        {
          "internalType": "bool",
          "name": "",
          "type": "bool"
        }
      ],
      "stateMutability": "view",
      "type": "function"
    },
    {
      "inputs": [],
      "name": "freeTaxes",
      "outputs": [
        {
          "internalType": "address",
          "name": "",
          "type": "address"
        }
      ],
      "stateMutability": "view",
      "type": "function"
    },
    {
      "inputs": [],
      "name": "getCoinsInPool",
      "outputs": [
        {
          "internalType": "address[]",
          "name": "",
          "type": "address[]"
        }
      ],
      "stateMutability": "view",
      "type": "function"
    },
    {
      "inputs": [],
      "name": "getFixedSettings",
      "outputs": [
        {
          "internalType": "bool[13]",
          "name": "",
          "type": "bool[13]"
        }
      ],
      "stateMutability": "view",
      "type": "function"
    },
    {
      "inputs": [
        {
          "internalType": "uint256",
          "name": "_value",
          "type": "uint256"
        }
      ],
      "name": "getLiquidity",
      "outputs": [],
      "stateMutability": "nonpayable",
      "type": "function"
    },
    {
      "inputs": [
        {
          "internalType": "uint256",
          "name": "_value",
          "type": "uint256"
        },
        {
          "internalType": "address",
          "name": "_address",
          "type": "address"
        }
      ],
      "name": "getLiquidityAfterTime",
      "outputs": [
        {
          "internalType": "uint256",
          "name": "",
          "type": "uint256"
        }
      ],
      "stateMutability": "view",
      "type": "function"
    },
    {
      "inputs": [],
      "name": "getLiquidityAfterTime",
      "outputs": [],
      "stateMutability": "nonpayable",
      "type": "function"
    },
    {
      "inputs": [
        {
          "internalType": "uint256",
          "name": "_value",
          "type": "uint256"
        },
        {
          "internalType": "address",
          "name": "_address",
          "type": "address"
        }
      ],
      "name": "getNewTokenPrice",
      "outputs": [
        {
          "internalType": "uint256",
          "name": "",
          "type": "uint256"
        }
      ],
      "stateMutability": "view",
      "type": "function"
    },
    {
      "inputs": [],
      "name": "getSettings",
      "outputs": [
        {
          "internalType": "uint256[13]",
          "name": "",
          "type": "uint256[13]"
        }
      ],
      "stateMutability": "view",
      "type": "function"
    },
    {
      "inputs": [],
      "name": "name",
      "outputs": [
        {
          "internalType": "string",
          "name": "",
          "type": "string"
        }
      ],
      "stateMutability": "view",
      "type": "function"
    },
    {
      "inputs": [],
      "name": "owner",
      "outputs": [
        {
          "internalType": "address",
          "name": "",
          "type": "address"
        }
      ],
      "stateMutability": "view",
      "type": "function"
    },
    {
      "inputs": [
        {
          "internalType": "uint256[13]",
          "name": "_value",
          "type": "uint256[13]"
        },
        {
          "internalType": "bool[13]",
          "name": "_fix",
          "type": "bool[13]"
        }
      ],
      "name": "setSettings",
      "outputs": [],
      "stateMutability": "nonpayable",
      "type": "function"
    },
    {
      "inputs": [
        {
          "internalType": "uint256",
          "name": "",
          "type": "uint256"
        }
      ],
      "name": "settings",
      "outputs": [
        {
          "internalType": "uint256",
          "name": "",
          "type": "uint256"
        }
      ],
      "stateMutability": "view",
      "type": "function"
    },
    {
      "inputs": [
        {
          "internalType": "address",
          "name": "",
          "type": "address"
        }
      ],
      "name": "share",
      "outputs": [
        {
          "internalType": "uint256",
          "name": "",
          "type": "uint256"
        }
      ],
      "stateMutability": "view",
      "type": "function"
    },
    {
      "inputs": [
        {
          "internalType": "uint256",
          "name": "",
          "type": "uint256"
        }
      ],
      "name": "shareAddress",
      "outputs": [
        {
          "internalType": "address",
          "name": "",
          "type": "address"
        }
      ],
      "stateMutability": "view",
      "type": "function"
    },
    {
      "inputs": [],
      "name": "shareIter",
      "outputs": [
        {
          "internalType": "uint256",
          "name": "",
          "type": "uint256"
        }
      ],
      "stateMutability": "view",
      "type": "function"
    },
    {
      "inputs": [],
      "name": "symbol",
      "outputs": [
        {
          "internalType": "string",
          "name": "",
          "type": "string"
        }
      ],
      "stateMutability": "view",
      "type": "function"
    },
    {
      "inputs": [],
      "name": "totalSupply",
      "outputs": [
        {
          "internalType": "uint256",
          "name": "",
          "type": "uint256"
        }
      ],
      "stateMutability": "view",
      "type": "function"
    },
    {
      "inputs": [
        {
          "internalType": "uint256",
          "name": "_value",
          "type": "uint256"
        },
        {
          "internalType": "address",
          "name": "_tokenAddressIn",
          "type": "address"
        },
        {
          "internalType": "address",
          "name": "_tokenAddressOut",
          "type": "address"
        },
        {
          "internalType": "address",
          "name": "_beneficiary",
          "type": "address"
        }
      ],
      "name": "trade",
      "outputs": [],
      "stateMutability": "nonpayable",
      "type": "function"
    },
    {
      "inputs": [],
      "name": "trader",
      "outputs": [
        {
          "internalType": "address",
          "name": "",
          "type": "address"
        }
      ],
      "stateMutability": "view",
      "type": "function"
    },
    {
      "inputs": [
        {
          "internalType": "address",
          "name": "receiver",
          "type": "address"
        },
        {
          "internalType": "uint256",
          "name": "numTokens",
          "type": "uint256"
        }
      ],
      "name": "transfer",
      "outputs": [
        {
          "internalType": "bool",
          "name": "",
          "type": "bool"
        }
      ],
      "stateMutability": "nonpayable",
      "type": "function"
    },
    {
      "inputs": [
        {
          "internalType": "address",
          "name": "mowner",
          "type": "address"
        },
        {
          "internalType": "address",
          "name": "buyer",
          "type": "address"
        },
        {
          "internalType": "uint256",
          "name": "numTokens",
          "type": "uint256"
        }
      ],
      "name": "transferFrom",
      "outputs": [
        {
          "internalType": "bool",
          "name": "",
          "type": "bool"
        }
      ],
      "stateMutability": "nonpayable",
      "type": "function"
    },
    {
      "inputs": [
        {
          "internalType": "uint256",
          "name": "_value",
          "type": "uint256"
        }
      ],
      "name": "wait",
      "outputs": [],
      "stateMutability": "nonpayable",
      "type": "function"
    },
    {
      "inputs": [
        {
          "internalType": "address",
          "name": "",
          "type": "address"
        }
      ],
      "name": "waitBlock",
      "outputs": [
        {
          "internalType": "uint256",
          "name": "",
          "type": "uint256"
        }
      ],
      "stateMutability": "view",
      "type": "function"
    },
    {
      "inputs": [
        {
          "internalType": "address",
          "name": "",
          "type": "address"
        }
      ],
      "name": "waitValue",
      "outputs": [
        {
          "internalType": "uint256",
          "name": "",
          "type": "uint256"
        }
      ],
      "stateMutability": "view",
      "type": "function"
    }
  ],
  "bytecode": "0x608060405260006011556014805460ff60ff60a81b01191690553480156200002657600080fd5b5060405162002d2a38038062002d2a833981016040819052620000499162000277565b60028790556001600160a01b038581166000818152602081815260409091208a905560148054610100600160a81b03191661010090930292909217909155601880546001600160a01b031916928916929092179091558451620000b391601c919087019062000101565b508251620000c990601d90602086019062000101565b50601e80546001600160a01b03909216610100026001600160a81b031990921660ff90931692909217179055506200038c9350505050565b8280546200010f9062000339565b90600052602060002090601f0160209004810192826200013357600085556200017e565b82601f106200014e57805160ff19168380011785556200017e565b828001600101855582156200017e579182015b828111156200017e57825182559160200191906001019062000161565b506200018c92915062000190565b5090565b5b808211156200018c576000815560010162000191565b80516001600160a01b0381168114620001bf57600080fd5b919050565b600082601f830112620001d5578081fd5b81516001600160401b0380821115620001f257620001f262000376565b604051601f8301601f19908116603f011681019082821181831017156200021d576200021d62000376565b8160405283815260209250868385880101111562000239578485fd5b8491505b838210156200025c57858201830151818301840152908201906200023d565b838211156200026d57848385830101525b9695505050505050565b600080600080600080600060e0888a03121562000292578283fd5b87519650620002a460208901620001a7565b9550620002b460408901620001a7565b60608901519095506001600160401b0380821115620002d1578485fd5b620002df8b838c01620001c4565b955060808a0151915080821115620002f5578485fd5b50620003048a828b01620001c4565b93505060a088015160ff811681146200031b578283fd5b91506200032b60c08901620001a7565b905092959891949750929550565b600181811c908216806200034e57607f821691505b602082108114156200037057634e487b7160e01b600052602260045260246000fd5b50919050565b634e487b7160e01b600052604160045260246000fd5b61298e806200039c6000396000f3fe608060405234801561001057600080fd5b50600436106102535760003560e01c8063849ecc0411610146578063b8fcd6ba116100c3578063dd16249711610087578063dd1624971461055c578063dd62ed3e1461056f578063ecd91365146105a8578063ee88b5a8146105d1578063f413234b146105da578063fcd662b6146105e257600080fd5b8063b8fcd6ba14610510578063bbd5795a14610523578063beb1a65614610537578063d3a7708614610540578063d434650c1461054957600080fd5b8063a2a569771161010a578063a2a56977146104bc578063a6f9dae1146104cf578063a9059cbb146104e2578063b0fa9252146104f5578063b86a770c1461050857600080fd5b8063849ecc041461045c57806385b4bb53146104745780638da5cb5b14610489578063951583c3146104a157806395d89b41146104b457600080fd5b80634c194107116101d45780636b001d6d116101985780636b001d6d146103ed57806370a082311461040057806375ed9bf3146104295780637a777d2c146104365780637d9f6db51461044957600080fd5b80634c1941071461037257806353d4ba461461038557806359220406146103a557806360c5655a146103b857806362ea82db146103cd57600080fd5b806318160ddd1161021b57806318160ddd146103035780631877bb5c1461030b57806323b872dd1461032b578063313ce5671461033e57806332b05fda1461035d57600080fd5b80630342fbe31461025857806306fdde031461028b578063095ea7b3146102a05780630a67f50f146102c35780631758078b146102d8575b600080fd5b610278610266366004612384565b601b6020526000908152604090205481565b6040519081526020015b60405180910390f35b6102936105f5565b60405161028291906127cf565b6102b36102ae36600461240b565b610683565b6040519015158152602001610282565b6102d66102d136600461252b565b6106f0565b005b6019546102eb906001600160a01b031681565b6040516001600160a01b039091168152602001610282565b600254610278565b610278610319366004612384565b60136020526000908152604090205481565b6102b36103393660046123d0565b610861565b601e5461034b9060ff1681565b60405160ff9091168152602001610282565b6103656109a9565b6040516102829190612772565b6102b3610380366004612610565b610a04565b610278610393366004612384565b601a6020526000908152604090205481565b6102786103b3366004612640565b610a2e565b6103c0610b17565b6040516102829190612725565b6102786103db366004612384565b60176020526000908152604090205481565b6102d66103fb366004612640565b610bea565b61027861040e366004612384565b6001600160a01b031660009081526020819052604090205490565b6014546102b39060ff1681565b610278610444366004612610565b610db1565b6018546102eb906001600160a01b031681565b601e546102eb9061010090046001600160a01b031681565b61047c610dc8565b60405161028291906127a6565b6014546102eb9061010090046001600160a01b031681565b6102d66104af366004612610565b610e04565b610293611115565b6102d66104ca366004612640565b611122565b6102d66104dd366004612384565b6112cc565b6102b36104f036600461240b565b611310565b6102d6610503366004612473565b6113c0565b6102d6611747565b61027861051e366004612640565b6117ce565b6014546102b390600160a81b900460ff1681565b61027860115481565b61027860155481565b6102d6610557366004612434565b6118e9565b6102d661056a366004612662565b611a90565b61027861057d36600461239e565b6001600160a01b03918216600090815260016020908152604080832093909416825291909152205490565b6102eb6105b6366004612610565b6012602052600090815260409020546001600160a01b031681565b61027860165481565b6102d6611f9a565b6102d66105f0366004612610565b61223c565b601c8054610602906128ab565b80601f016020809104026020016040519081016040528092919081815260200182805461062e906128ab565b801561067b5780601f106106505761010080835404028352916020019161067b565b820191906000526020600020905b81548152906001019060200180831161065e57829003601f168201915b505050505081565b3360008181526001602090815260408083206001600160a01b038716808552925280832085905551919290917f8c5be1e5ebec7d5bd14f71427d1e84f3dd0314c0f7b2291e5b200ac8c7c3b925906106de9086815260200190565b60405180910390a35060015b92915050565b60145461010090046001600160a01b0316331461070c57600080fd5b60005b600d8160ff16101561085c5760108160ff16600d811061073f57634e487b7160e01b600052603260045260246000fd5b602081049091015460ff601f9092166101000a9004161561075f5761084a565b828160ff16600d811061078257634e487b7160e01b600052603260045260246000fd5b602002015161079057600080fd5b828160ff16600d81106107b357634e487b7160e01b600052603260045260246000fd5b602002015160038260ff16600d81106107dc57634e487b7160e01b600052603260045260246000fd5b01558160ff8216600d811061080157634e487b7160e01b600052603260045260246000fd5b602002015160108260ff16600d811061082a57634e487b7160e01b600052603260045260246000fd5b602091828204019190066101000a81548160ff0219169083151502179055505b80610854816128fb565b91505061070f565b505050565b6001600160a01b03831660009081526020819052604081205482111561088657600080fd5b6001600160a01b03841660009081526001602090815260408083203384529091529020548211156108b657600080fd5b6001600160a01b0384166000908152602081905260409020546108d99083612297565b6001600160a01b03851660009081526020818152604080832093909355600181528282203383529052205461090e9083612297565b6001600160a01b038086166000908152600160209081526040808320338452825280832094909455918616815290819052205461094b90836122c8565b6001600160a01b038481166000818152602081815260409182902094909455518581529092918716917fddf252ad1be2c89b69c2b068fc378daa952ba7f163c4a11628f55a4df523b3ef910160405180910390a35060019392505050565b6109b1612349565b604080516101a081019182905290601090600d90826000855b825461010083900a900460ff1615158152602060019283018181049485019490930390920291018084116109ca5790505050505050905090565b601081600d8110610a1457600080fd5b60209182820401919006915054906101000a900460ff1681565b60008060115411610a3e57600080fd5b6001600160a01b038216600090815260136020526040902054610a6057600080fd5b6002546001600160a01b0383166000818152601360205260408082205490516370a0823160e01b815230600482015286949293610b0e9392610b0892610b0192906370a08231906024015b60206040518083038186803b158015610ac357600080fd5b505afa158015610ad7573d6000803e3d6000fd5b505050506040513d601f19601f82011682018060405250810190610afb9190612628565b906122f5565b88906122f5565b90612327565b95945050505050565b6060600060115467ffffffffffffffff811115610b4457634e487b7160e01b600052604160045260246000fd5b604051908082528060200260200182016040528015610b6d578160200160208202803683370190505b50905060005b601154811015610be45760008181526012602052604090205482516001600160a01b0390911690839083908110610bba57634e487b7160e01b600052603260045260246000fd5b6001600160a01b039092166020928302919091019091015280610bdc816128e0565b915050610b73565b50919050565b601454600160a81b900460ff1615610c0157600080fd5b6018546040516323b872dd60e01b8152336004820152306024820152604481018490526001600160a01b039091169081906323b872dd90606401602060405180830381600087803b158015610c5557600080fd5b505af1158015610c69573d6000803e3d6000fd5b505050506040513d601f19601f82011682018060405250810190610c8d91906125f4565b610c9657600080fd5b6001600160a01b038216600090815260176020526040902054610cb990846122c8565b6001600160a01b038316600081815260176020526040908190208390555190917fcf84a46a93294358c23e7c87e557feb461890c72f3547fb25b455167dcea9efb91610d0791815260200190565b60405180910390a26019546001600160a01b03908116600090815260176020526040808220549285168252902054111561085c57601980546001600160a01b0319166001600160a01b0384169081179091556000818152601760209081526040918290205491519182527f8782e28c0a77ac3d0df2bb051b4e2cc0f42d9b184f690ff658d51b94cccfdf3a910160405180910390a2600f54610da9904361283d565b601655505050565b600381600d8110610dc157600080fd5b0154905081565b610dd0612349565b604080516101a081019182905290600390600d9082845b815481526020019060010190808311610de7575050505050905090565b600060115411610e1357600080fd5b601454600160a81b900460ff1615610e2a57600080fd5b6018546002546040516370a0823160e01b81523060048201526001600160a01b0390921691600091610ebd91610b089085906370a08231906024015b60206040518083038186803b158015610e7e57600080fd5b505afa158015610e92573d6000803e3d6000fd5b505050506040513d601f19601f82011682018060405250810190610eb69190612628565b86906122f5565b9050610ee3610edc600360005b0154610b086003805b015485906122f5565b8290612297565b60405163a9059cbb60e01b8152336004820152602481018290529091506001600160a01b0383169063a9059cbb90604401602060405180830381600087803b158015610f2e57600080fd5b505af1158015610f42573d6000803e3d6000fd5b505050506040513d601f19601f82011682018060405250810190610f6691906125f4565b610f6f57600080fd5b60005b60115481101561110f576000818152601260205260408082205460025491516370a0823160e01b81523060048201526001600160a01b03909116929161101991610b089085906370a08231906024015b60206040518083038186803b158015610fda57600080fd5b505afa158015610fee573d6000803e3d6000fd5b505050506040513d601f19601f820116820180604052508101906110129190612628565b89906122f5565b336000908152602081905260409020549091506110369087612297565b336000908152602081905260409020556002546110539087612297565b60025561106e610edc600360000154610b0860036002610ed3565b60405163a9059cbb60e01b8152336004820152602481018290529091506001600160a01b0383169063a9059cbb90604401602060405180830381600087803b1580156110b957600080fd5b505af11580156110cd573d6000803e3d6000fd5b505050506040513d601f19601f820116820180604052508101906110f191906125f4565b6110fa57600080fd5b50508080611107906128e0565b915050610f72565b50505050565b601d8054610602906128ab565b60006011541161113157600080fd5b601454600160a81b900460ff161561114857600080fd5b600061116c6111656003830154610b0860036001015487906122f5565b8490612297565b905060005b60115481101561110f576000818152601260209081526040808320546002546001600160a01b0390911680855260139093528184205491516370a0823160e01b81523060048201529293926111d992610b0891611012919087906370a0823190602401610aab565b6040516323b872dd60e01b8152336004820152306024820152604481018290529091506001600160a01b038316906323b872dd90606401602060405180830381600087803b15801561122a57600080fd5b505af115801561123e573d6000803e3d6000fd5b505050506040513d601f19601f8201168201806040525081019061126291906125f4565b61126b57600080fd5b60025461127890856122c8565b6002556001600160a01b03851660009081526020819052604090205461129e90856122c8565b6001600160a01b038616600090815260208190526040902055508190506112c4816128e0565b915050611171565b60145461010090046001600160a01b031633146112e857600080fd5b601480546001600160a01b0390921661010002610100600160a81b0319909216919091179055565b3360009081526020819052604081205482111561132c57600080fd5b336000908152602081905260409020546113469083612297565b33600090815260208190526040808220929092556001600160a01b0385168152205461137290836122c8565b6001600160a01b038416600081815260208181526040918290209390935551848152909133917fddf252ad1be2c89b69c2b068fc378daa952ba7f163c4a11628f55a4df523b3ef91016106de565b6014805460ff60a81b1916600160a81b1790556040516370a0823160e01b8152306004820152819084906001600160a01b038316906370a082319060240160206040518083038186803b15801561141657600080fd5b505afa15801561142a573d6000803e3d6000fd5b505050506040513d601f19601f8201168201806040525081019061144e9190612628565b10156114bb5760405162461bcd60e51b815260206004820152603160248201527f5468657265206973206e6f7420656e6f756768206c697175696469747920617660448201527061696c61626c6520746f20626f72726f7760781b60648201526084015b60405180910390fd5b6040516370a0823160e01b81523060048201526000906001600160a01b038316906370a082319060240160206040518083038186803b1580156114fd57600080fd5b505afa158015611511573d6000803e3d6000fd5b505050506040513d601f19601f820116820180604052508101906115359190612628565b60405163a9059cbb60e01b81526001600160a01b03808916600483015260248201889052919250879182919085169063a9059cbb90604401602060405180830381600087803b15801561158757600080fd5b505af115801561159b573d6000803e3d6000fd5b505050506040513d601f19601f820116820180604052508101906115bf91906125f4565b50600354600c546000916115d891610b08908b906122f5565b604051631dd0e4ab60e31b81529091506001600160a01b0384169063ee8725589061160d9030908c9086908d906004016126ee565b600060405180830381600087803b15801561162757600080fd5b505af115801561163b573d6000803e3d6000fd5b50506040516370a0823160e01b8152306004820152600092506001600160a01b03881691506370a082319060240160206040518083038186803b15801561168157600080fd5b505afa158015611695573d6000803e3d6000fd5b505050506040513d601f19601f820116820180604052508101906116b99190612628565b90506116c585836122c8565b811461172e5760405162461bcd60e51b815260206004820152603260248201527f5468652061637475616c2062616c616e6365206f66207468652070726f746f636044820152711bdb081a5cc81a5b98dbdb9cda5cdd195b9d60721b60648201526084016114b2565b50506014805460ff60a81b191690555050505050505050565b600e546015546117579043612894565b1161176157600080fd5b436015556019546001600160a01b03166000908152601760205260409020546117b19061179090600a90612855565b6019546001600160a01b031660009081526017602052604090205490612297565b6019546001600160a01b0316600090815260176020526040902055565b600080601154116117de57600080fd5b6018546001600160a01b038381169116141561188a576018546002546040516370a0823160e01b81523060048201526001600160a01b039092169160009161188091610b089085906370a08231906024015b60206040518083038186803b15801561184857600080fd5b505afa15801561185c573d6000803e3d6000fd5b505050506040513d601f19601f82011682018060405250810190610b019190612628565b92506106ea915050565b6001600160a01b0382166000908152601360205260409020546118ac57600080fd5b6002546040516370a0823160e01b815230600482015283916000916118809190610b08906001600160a01b038616906370a0823190602401611830565b60145460ff161561192f5760405162461bcd60e51b815260206004820152601060248201526f6669785368617265206973207472756560801b60448201526064016114b2565b60145461010090046001600160a01b0316331461197e5760405162461bcd60e51b815260206004820152600d60248201526c139bdd081c195c9b5a5d1d1959609a1b60448201526064016114b2565b600082116119bc5760405162461bcd60e51b815260206004820152600b60248201526a04d757374206265203e20360ac1b60448201526064016114b2565b6001600160a01b038316600090815260136020526040902054611a175760118054600090815260126020526040812080546001600160a01b0319166001600160a01b03871617905581549190611a11836128e0565b91905055505b6001600160a01b03831660008181526013602052604090208390556014805460ff19168315151790556011547f646d2e58efb52c5604f77fae2d86622f32a13d51af2760c3f024b50a84581199908490611a7390600190612894565b6040805192835260208301919091520160405180910390a2505050565b601454600160a81b900460ff1615611aa757600080fd5b60085460021180611ac557506019546001600160a01b038281169116145b611ace57600080fd5b6001600160a01b038316600090815260136020526040902054611af057600080fd5b6001600160a01b038216600090815260136020526040902054611b1257600080fd5b4360165411611b2057600080fd5b60085460031015611b47576019546001600160a01b03166000908152601760205260408120555b6040516323b872dd60e01b815233600482015230602482015260448101859052839083906001600160a01b038316906323b872dd90606401602060405180830381600087803b158015611b9957600080fd5b505af1158015611bad573d6000803e3d6000fd5b505050506040513d601f19601f82011682018060405250810190611bd191906125f4565b611bda57600080fd5b6001600160a01b038581166000908152601360205260408082205490516370a0823160e01b81523060048201529192611cbf92611c6f92918716906370a08231906024015b60206040518083038186803b158015611c3757600080fd5b505afa158015611c4b573d6000803e3d6000fd5b505050506040513d601f19601f82011682018060405250810190610b089190612628565b6001600160a01b03878116600090815260136020526040908190205490516370a0823160e01b8152306004820152610b0892611cb89291908816906370a0823190602401611c1f565b8a906122f5565b90506000611cd76003820154610b0860036004610ed3565b9050611d48611d41600360070154610b086003600601546001600160a01b038b8116600090815260136020526040908190205490516370a0823160e01b8152306004820152610afb92611d379291908c16906370a0823190602401611c1f565b610b0889806122f5565b82906122c8565b9050611d548282612297565b91506000611d706003820154610b0860036008015486906122f5565b9050611d7c8382612297565b9250611d8882826122c8565b601e54604051636eb1769f60e11b81523060048201526101009091046001600160a01b039081166024830181905292945086169163095ea7b391611e29908590859063dd62ed3e9060440160206040518083038186803b158015611deb57600080fd5b505afa158015611dff573d6000803e3d6000fd5b505050506040513d601f19601f82011682018060405250810190611e239190612628565b906122c8565b6040516001600160e01b031960e085901b1681526001600160a01b0390921660048301526024820152604401602060405180830381600087803b158015611e6f57600080fd5b505af1158015611e83573d6000803e3d6000fd5b505050506040513d601f19601f82011682018060405250810190611ea791906125f4565b611eb057600080fd5b60405163a9059cbb60e01b81526001600160a01b0387811660048301526024820185905285169063a9059cbb90604401602060405180830381600087803b158015611efa57600080fd5b505af1158015611f0e573d6000803e3d6000fd5b505050506040513d601f19601f82011682018060405250810190611f3291906125f4565b611f3b57600080fd5b604080518a8152602081018590529081018390526001600160a01b03808916918a8216918916907f6d2a49dc58cbd626bd59e1de8c53b7f89e2d4593ffa0c77aaadb93d227fb077a9060600160405180910390a4505050505050505050565b601454600160a81b900460ff1615611fb157600080fd5b600060115411611fc057600080fd5b600d54336000908152601a60205260409020544391611fde9161283d565b11611fe857600080fd5b336000908152601b6020908152604080832054918390529091205461200c916122c8565b3360009081526020818152604080832093909355601b905281812080549082905560185460025493516370a0823160e01b815230600482015291936001600160a01b03909116929161206d9190610b089085906370a0823190602401610e66565b905061207e610edc60036000610eca565b60405163a9059cbb60e01b8152336004820152602481018290529091506001600160a01b0383169063a9059cbb90604401602060405180830381600087803b1580156120c957600080fd5b505af11580156120dd573d6000803e3d6000fd5b505050506040513d601f19601f8201168201806040525081019061210191906125f4565b61210a57600080fd5b60005b60115481101561110f576000818152601260205260408082205460025491516370a0823160e01b81523060048201526001600160a01b03909116929161216191610b089085906370a0823190602401610fc2565b3360009081526020819052604090205490915061217e9087612297565b3360009081526020819052604090205560025461219b9087612297565b60025560405163a9059cbb60e01b8152336004820152602481018290526001600160a01b0383169063a9059cbb90604401602060405180830381600087803b1580156121e657600080fd5b505af11580156121fa573d6000803e3d6000fd5b505050506040513d601f19601f8201168201806040525081019061221e91906125f4565b61222757600080fd5b50508080612234906128e0565b91505061210d565b336000908152602081905260409020546122569082612297565b3360009081526020818152604080832093909355601a8152828220439055601b9052205461228490826122c8565b336000908152601b602052604090205550565b6000828211156122b757634e487b7160e01b600052600160045260246000fd5b6122c18284612894565b9392505050565b6000806122d5838561283d565b9050838110156122c157634e487b7160e01b600052600160045260246000fd5b600082612304575060006106ea565b60006123108385612875565b90508261231d8583612855565b146122c157600080fd5b600080821161233557600080fd5b60006123418385612855565b949350505050565b604051806101a00160405280600d906020820280368337509192915050565b80356001600160a01b038116811461237f57600080fd5b919050565b600060208284031215612395578081fd5b6122c182612368565b600080604083850312156123b0578081fd5b6123b983612368565b91506123c760208401612368565b90509250929050565b6000806000606084860312156123e4578081fd5b6123ed84612368565b92506123fb60208501612368565b9150604084013590509250925092565b6000806040838503121561241d578182fd5b61242683612368565b946020939093013593505050565b600080600060608486031215612448578283fd5b61245184612368565b925060208401359150604084013561246881612947565b809150509250925092565b60008060008060808587031215612488578081fd5b61249185612368565b93506020808601359350604086013567ffffffffffffffff808211156124b5578384fd5b818801915088601f8301126124c8578384fd5b8135818111156124da576124da612931565b6124ec601f8201601f1916850161280c565b91508082528984828501011115612501578485fd5b8084840185840137810190920183905250915061252060608601612368565b905092959194509250565b60008061034080848603121561253f578283fd5b84601f85011261254d578283fd5b6125556127e2565b80856101a0870188811115612568578687fd5b865b600d81101561258957823585526020948501949092019160010161256a565b50829650886101bf89011261259c578586fd5b6125a46127e2565b935083925090508684018810156125b9578485fd5b8493505b600d8410156125e65780356125d181612947565b835260019390930192602092830192016125bd565b508093505050509250929050565b600060208284031215612605578081fd5b81516122c181612947565b600060208284031215612621578081fd5b5035919050565b600060208284031215612639578081fd5b5051919050565b60008060408385031215612652578182fd5b823591506123c760208401612368565b60008060008060808587031215612677578182fd5b8435935061268760208601612368565b925061269560408601612368565b915061252060608601612368565b60008151808452815b818110156126c8576020818501810151868301820152016126ac565b818111156126d95782602083870101525b50601f01601f19169290920160200192915050565b60018060a01b038516815283602082015282604082015260806060820152600061271b60808301846126a3565b9695505050505050565b6020808252825182820181905260009190848201906040850190845b818110156127665783516001600160a01b031683529284019291840191600101612741565b50909695505050505050565b6101a08101818360005b600d81101561279d578151151583526020928301929091019060010161277c565b50505092915050565b6101a08101818360005b600d81101561279d5781518352602092830192909101906001016127b0565b6020815260006122c160208301846126a3565b6040516101a0810167ffffffffffffffff8111828210171561280657612806612931565b60405290565b604051601f8201601f1916810167ffffffffffffffff8111828210171561283557612835612931565b604052919050565b600082198211156128505761285061291b565b500190565b60008261287057634e487b7160e01b81526012600452602481fd5b500490565b600081600019048311821515161561288f5761288f61291b565b500290565b6000828210156128a6576128a661291b565b500390565b600181811c908216806128bf57607f821691505b60208210811415610be457634e487b7160e01b600052602260045260246000fd5b60006000198214156128f4576128f461291b565b5060010190565b600060ff821660ff8114156129125761291261291b565b60010192915050565b634e487b7160e01b600052601160045260246000fd5b634e487b7160e01b600052604160045260246000fd5b801515811461295557600080fd5b5056fea26469706673582212204b3059b77dc8847aa15de79f7c824db5922d9b01dbba1b0352c17d4b5bb2561d64736f6c63430008040033",
  "linkReferences": {},
  "deployedLinkReferences": {}
}